{
  "_format": "hh-sol-artifact-1",
  "contractName": "PlatWifHat",
  "sourceName": "contracts/Tokens/PlatWifHat.sol",
  "abi": [
    {
      "inputs": [
        {
          "internalType": "string",
          "name": "name",
          "type": "string"
        },
        {
          "internalType": "string",
          "name": "symbol",
          "type": "string"
        },
        {
          "internalType": "address",
          "name": "contractOwner",
          "type": "address"
        },
        {
          "internalType": "uint256",
          "name": "lsp4TokenType",
          "type": "uint256"
        },
        {
          "internalType": "bool",
          "name": "isNonDivisible",
          "type": "bool"
        }
      ],
      "stateMutability": "nonpayable",
      "type": "constructor"
    },
    {
      "inputs": [],
      "name": "ERC725Y_DataKeysValuesEmptyArray",
      "type": "error"
    },
    {
      "inputs": [],
      "name": "ERC725Y_DataKeysValuesLengthMismatch",
      "type": "error"
    },
    {
      "inputs": [],
      "name": "ERC725Y_MsgValueDisallowed",
      "type": "error"
    },
    {
      "inputs": [
        {
          "internalType": "bytes",
          "name": "storedData",
          "type": "bytes"
        }
      ],
      "name": "InvalidExtensionAddress",
      "type": "error"
    },
    {
      "inputs": [
        {
          "internalType": "bytes",
          "name": "data",
          "type": "bytes"
        }
      ],
      "name": "InvalidFunctionSelector",
      "type": "error"
    },
    {
      "inputs": [],
      "name": "LSP4TokenNameNotEditable",
      "type": "error"
    },
    {
      "inputs": [],
      "name": "LSP4TokenSymbolNotEditable",
      "type": "error"
    },
    {
      "inputs": [],
      "name": "LSP4TokenTypeNotEditable",
      "type": "error"
    },
    {
      "inputs": [
        {
          "internalType": "address",
          "name": "tokenOwner",
          "type": "address"
        },
        {
          "internalType": "uint256",
          "name": "authorizedAmount",
          "type": "uint256"
        },
        {
          "internalType": "address",
          "name": "operator",
          "type": "address"
        },
        {
          "internalType": "uint256",
          "name": "amount",
          "type": "uint256"
        }
      ],
      "name": "LSP7AmountExceedsAuthorizedAmount",
      "type": "error"
    },
    {
      "inputs": [
        {
          "internalType": "uint256",
          "name": "balance",
          "type": "uint256"
        },
        {
          "internalType": "address",
          "name": "tokenOwner",
          "type": "address"
        },
        {
          "internalType": "uint256",
          "name": "amount",
          "type": "uint256"
        }
      ],
      "name": "LSP7AmountExceedsBalance",
      "type": "error"
    },
    {
      "inputs": [
        {
          "internalType": "uint256",
          "name": "callIndex",
          "type": "uint256"
        }
      ],
      "name": "LSP7BatchCallFailed",
      "type": "error"
    },
    {
      "inputs": [],
      "name": "LSP7CannotSendToSelf",
      "type": "error"
    },
    {
      "inputs": [],
      "name": "LSP7CannotSendWithAddressZero",
      "type": "error"
    },
    {
      "inputs": [],
      "name": "LSP7CannotUseAddressZeroAsOperator",
      "type": "error"
    },
    {
      "inputs": [],
      "name": "LSP7DecreasedAllowanceBelowZero",
      "type": "error"
    },
    {
      "inputs": [],
      "name": "LSP7InvalidTransferBatch",
      "type": "error"
    },
    {
      "inputs": [
        {
          "internalType": "address",
          "name": "tokenReceiver",
          "type": "address"
        }
      ],
      "name": "LSP7NotifyTokenReceiverContractMissingLSP1Interface",
      "type": "error"
    },
    {
      "inputs": [
        {
          "internalType": "address",
          "name": "tokenReceiver",
          "type": "address"
        }
      ],
      "name": "LSP7NotifyTokenReceiverIsEOA",
      "type": "error"
    },
    {
      "inputs": [],
      "name": "LSP7TokenContractCannotHoldValue",
      "type": "error"
    },
    {
      "inputs": [],
      "name": "LSP7TokenOwnerCannotBeOperator",
      "type": "error"
    },
    {
      "inputs": [
        {
          "internalType": "bytes4",
          "name": "functionSelector",
          "type": "bytes4"
        }
      ],
      "name": "NoExtensionFoundForFunctionSelector",
      "type": "error"
    },
    {
      "inputs": [
        {
          "internalType": "address",
          "name": "operator",
          "type": "address"
        }
      ],
      "name": "OperatorAllowanceCannotBeIncreasedFromZero",
      "type": "error"
    },
    {
      "inputs": [
        {
          "internalType": "address",
          "name": "callerAddress",
          "type": "address"
        }
      ],
      "name": "OwnableCallerNotTheOwner",
      "type": "error"
    },
    {
      "inputs": [],
      "name": "OwnableCannotSetZeroAddressAsOwner",
      "type": "error"
    },
    {
      "anonymous": false,
      "inputs": [
        {
          "indexed": true,
          "internalType": "bytes32",
          "name": "dataKey",
          "type": "bytes32"
        },
        {
          "indexed": false,
          "internalType": "bytes",
          "name": "dataValue",
          "type": "bytes"
        }
      ],
      "name": "DataChanged",
      "type": "event"
    },
    {
      "anonymous": false,
      "inputs": [
        {
          "indexed": true,
          "internalType": "address",
          "name": "operator",
          "type": "address"
        },
        {
          "indexed": true,
          "internalType": "address",
          "name": "tokenOwner",
          "type": "address"
        },
        {
          "indexed": true,
          "internalType": "uint256",
          "name": "amount",
          "type": "uint256"
        },
        {
          "indexed": false,
          "internalType": "bytes",
          "name": "operatorNotificationData",
          "type": "bytes"
        }
      ],
      "name": "OperatorAuthorizationChanged",
      "type": "event"
    },
    {
      "anonymous": false,
      "inputs": [
        {
          "indexed": true,
          "internalType": "address",
          "name": "operator",
          "type": "address"
        },
        {
          "indexed": true,
          "internalType": "address",
          "name": "tokenOwner",
          "type": "address"
        },
        {
          "indexed": true,
          "internalType": "bool",
          "name": "notified",
          "type": "bool"
        },
        {
          "indexed": false,
          "internalType": "bytes",
          "name": "operatorNotificationData",
          "type": "bytes"
        }
      ],
      "name": "OperatorRevoked",
      "type": "event"
    },
    {
      "anonymous": false,
      "inputs": [
        {
          "indexed": true,
          "internalType": "address",
          "name": "previousOwner",
          "type": "address"
        },
        {
          "indexed": true,
          "internalType": "address",
          "name": "newOwner",
          "type": "address"
        }
      ],
      "name": "OwnershipTransferred",
      "type": "event"
    },
    {
      "anonymous": false,
      "inputs": [
        {
          "indexed": true,
          "internalType": "address",
          "name": "operator",
          "type": "address"
        },
        {
          "indexed": true,
          "internalType": "address",
          "name": "from",
          "type": "address"
        },
        {
          "indexed": true,
          "internalType": "address",
          "name": "to",
          "type": "address"
        },
        {
          "indexed": false,
          "internalType": "uint256",
          "name": "amount",
          "type": "uint256"
        },
        {
          "indexed": false,
          "internalType": "bool",
          "name": "force",
          "type": "bool"
        },
        {
          "indexed": false,
          "internalType": "bytes",
          "name": "data",
          "type": "bytes"
        }
      ],
      "name": "Transfer",
      "type": "event"
    },
    {
      "stateMutability": "payable",
      "type": "fallback"
    },
    {
      "inputs": [
        {
          "internalType": "address",
          "name": "operator",
          "type": "address"
        },
        {
          "internalType": "uint256",
          "name": "amount",
          "type": "uint256"
        },
        {
          "internalType": "bytes",
          "name": "operatorNotificationData",
          "type": "bytes"
        }
      ],
      "name": "authorizeOperator",
      "outputs": [],
      "stateMutability": "nonpayable",
      "type": "function"
    },
    {
      "inputs": [
        {
          "internalType": "address",
          "name": "operator",
          "type": "address"
        },
        {
          "internalType": "address",
          "name": "tokenOwner",
          "type": "address"
        }
      ],
      "name": "authorizedAmountFor",
      "outputs": [
        {
          "internalType": "uint256",
          "name": "",
          "type": "uint256"
        }
      ],
      "stateMutability": "view",
      "type": "function"
    },
    {
      "inputs": [
        {
          "internalType": "address",
          "name": "tokenOwner",
          "type": "address"
        }
      ],
      "name": "balanceOf",
      "outputs": [
        {
          "internalType": "uint256",
          "name": "",
          "type": "uint256"
        }
      ],
      "stateMutability": "view",
      "type": "function"
    },
    {
      "inputs": [
        {
          "internalType": "bytes[]",
          "name": "data",
          "type": "bytes[]"
        }
      ],
      "name": "batchCalls",
      "outputs": [
        {
          "internalType": "bytes[]",
          "name": "results",
          "type": "bytes[]"
        }
      ],
      "stateMutability": "nonpayable",
      "type": "function"
    },
    {
      "inputs": [
        {
          "internalType": "address",
          "name": "from",
          "type": "address"
        },
        {
          "internalType": "uint256",
          "name": "amount",
          "type": "uint256"
        },
        {
          "internalType": "bytes",
          "name": "data",
          "type": "bytes"
        }
      ],
      "name": "burn",
      "outputs": [],
      "stateMutability": "nonpayable",
      "type": "function"
    },
    {
      "inputs": [],
      "name": "decimals",
      "outputs": [
        {
          "internalType": "uint8",
          "name": "",
          "type": "uint8"
        }
      ],
      "stateMutability": "view",
      "type": "function"
    },
    {
      "inputs": [
        {
          "internalType": "address",
          "name": "operator",
          "type": "address"
        },
        {
          "internalType": "uint256",
          "name": "subtractedAmount",
          "type": "uint256"
        },
        {
          "internalType": "bytes",
          "name": "operatorNotificationData",
          "type": "bytes"
        }
      ],
      "name": "decreaseAllowance",
      "outputs": [],
      "stateMutability": "nonpayable",
      "type": "function"
    },
    {
      "inputs": [
        {
          "internalType": "bytes32",
          "name": "dataKey",
          "type": "bytes32"
        }
      ],
      "name": "getData",
      "outputs": [
        {
          "internalType": "bytes",
          "name": "dataValue",
          "type": "bytes"
        }
      ],
      "stateMutability": "view",
      "type": "function"
    },
    {
      "inputs": [
        {
          "internalType": "bytes32[]",
          "name": "dataKeys",
          "type": "bytes32[]"
        }
      ],
      "name": "getDataBatch",
      "outputs": [
        {
          "internalType": "bytes[]",
          "name": "dataValues",
          "type": "bytes[]"
        }
      ],
      "stateMutability": "view",
      "type": "function"
    },
    {
      "inputs": [
        {
          "internalType": "address",
          "name": "tokenOwner",
          "type": "address"
        }
      ],
      "name": "getOperatorsOf",
      "outputs": [
        {
          "internalType": "address[]",
          "name": "",
          "type": "address[]"
        }
      ],
      "stateMutability": "view",
      "type": "function"
    },
    {
      "inputs": [
        {
          "internalType": "address",
          "name": "operator",
          "type": "address"
        },
        {
          "internalType": "uint256",
          "name": "addedAmount",
          "type": "uint256"
        },
        {
          "internalType": "bytes",
          "name": "operatorNotificationData",
          "type": "bytes"
        }
      ],
      "name": "increaseAllowance",
      "outputs": [],
      "stateMutability": "nonpayable",
      "type": "function"
    },
    {
      "inputs": [
        {
          "internalType": "address",
          "name": "to",
          "type": "address"
        },
        {
          "internalType": "uint256",
          "name": "amount",
          "type": "uint256"
        },
        {
          "internalType": "bool",
          "name": "force",
          "type": "bool"
        },
        {
          "internalType": "bytes",
          "name": "data",
          "type": "bytes"
        }
      ],
      "name": "mint",
      "outputs": [],
      "stateMutability": "nonpayable",
      "type": "function"
    },
    {
      "inputs": [],
      "name": "owner",
      "outputs": [
        {
          "internalType": "address",
          "name": "",
          "type": "address"
        }
      ],
      "stateMutability": "view",
      "type": "function"
    },
    {
      "inputs": [],
      "name": "renounceOwnership",
      "outputs": [],
      "stateMutability": "nonpayable",
      "type": "function"
    },
    {
      "inputs": [
        {
          "internalType": "address",
          "name": "operator",
          "type": "address"
        },
        {
          "internalType": "bool",
          "name": "notify",
          "type": "bool"
        },
        {
          "internalType": "bytes",
          "name": "operatorNotificationData",
          "type": "bytes"
        }
      ],
      "name": "revokeOperator",
      "outputs": [],
      "stateMutability": "nonpayable",
      "type": "function"
    },
    {
      "inputs": [
        {
          "internalType": "bytes32",
          "name": "dataKey",
          "type": "bytes32"
        },
        {
          "internalType": "bytes",
          "name": "dataValue",
          "type": "bytes"
        }
      ],
      "name": "setData",
      "outputs": [],
      "stateMutability": "payable",
      "type": "function"
    },
    {
      "inputs": [
        {
          "internalType": "bytes32[]",
          "name": "dataKeys",
          "type": "bytes32[]"
        },
        {
          "internalType": "bytes[]",
          "name": "dataValues",
          "type": "bytes[]"
        }
      ],
      "name": "setDataBatch",
      "outputs": [],
      "stateMutability": "payable",
      "type": "function"
    },
    {
      "inputs": [
        {
          "internalType": "bytes4",
          "name": "interfaceId",
          "type": "bytes4"
        }
      ],
      "name": "supportsInterface",
      "outputs": [
        {
          "internalType": "bool",
          "name": "",
          "type": "bool"
        }
      ],
      "stateMutability": "view",
      "type": "function"
    },
    {
      "inputs": [],
      "name": "totalSupply",
      "outputs": [
        {
          "internalType": "uint256",
          "name": "",
          "type": "uint256"
        }
      ],
      "stateMutability": "view",
      "type": "function"
    },
    {
      "inputs": [
        {
          "internalType": "address",
          "name": "from",
          "type": "address"
        },
        {
          "internalType": "address",
          "name": "to",
          "type": "address"
        },
        {
          "internalType": "uint256",
          "name": "amount",
          "type": "uint256"
        },
        {
          "internalType": "bool",
          "name": "force",
          "type": "bool"
        },
        {
          "internalType": "bytes",
          "name": "data",
          "type": "bytes"
        }
      ],
      "name": "transfer",
      "outputs": [],
      "stateMutability": "nonpayable",
      "type": "function"
    },
    {
      "inputs": [
        {
          "internalType": "address[]",
          "name": "from",
          "type": "address[]"
        },
        {
          "internalType": "address[]",
          "name": "to",
          "type": "address[]"
        },
        {
          "internalType": "uint256[]",
          "name": "amount",
          "type": "uint256[]"
        },
        {
          "internalType": "bool[]",
          "name": "force",
          "type": "bool[]"
        },
        {
          "internalType": "bytes[]",
          "name": "data",
          "type": "bytes[]"
        }
      ],
      "name": "transferBatch",
      "outputs": [],
      "stateMutability": "nonpayable",
      "type": "function"
    },
    {
      "inputs": [
        {
          "internalType": "address",
          "name": "newOwner",
          "type": "address"
        }
      ],
      "name": "transferOwnership",
      "outputs": [],
      "stateMutability": "nonpayable",
      "type": "function"
    },
    {
      "stateMutability": "payable",
      "type": "receive"
    }
  ],
  "bytecode": "0x60806040523480156200001157600080fd5b506040516200348b3803806200348b8339810160408190526200003491620006aa565b8484848484848484848484848484816001600160a01b0381166200006b576040516306b620db60e21b815260040160405180910390fd5b6200007681620001dc565b506040805180820190915260048152632936598960e21b6020820152620000bf907feafec4d89fa9619884b60000a4d96624a38f7ac2d8d9a604ecf07c12c77e480c906200024a565b620000eb7fdeba1e292f8ba88238e10ab3c7f88bd4be4fac56cad5194b6ecceaf653468af1856200024a565b620001177f2f0a68ab07768e01943a599e73362a0e17a63a72e94dd2e384d2c1d4db932756846200024a565b604080516020810183905262000160917fe0261fa95db2eb3b5439bd033cda66d56b96f92f243a8228fd87550ed7bdfdb3910160408051601f198184030181529190526200024a565b50506002805460ff19169315159390931790925550620001d19950339850620001929750620002a39650505050505050565b6200019f90600a6200086e565b620001af9063191338506200087f565b604080518082019091526002815261060f60f31b6020820152600190620002bd565b505050505062000b30565b6000546001600160a01b038281169116146200024757600080546040516001600160a01b03808516939216917f8be0079c531659141344cd1fd0a4f28419497f9722a3daafe3b4186f6b6457e091a3600080546001600160a01b0319166001600160a01b0383161790555b50565b600082815260016020526040902062000264828262000927565b50817fece574603820d07bc9b91f2a932baadf4628aabcb8afba49776529c14a6104b28260405162000297919062000a21565b60405180910390a25050565b60025460009060ff16620002b75750601290565b50600090565b620002c7620002db565b620002d58484848462000320565b50505050565b33620002ef6000546001600160a01b031690565b6001600160a01b0316146200031e5760405163bf1169c560e01b81523360048201526024015b60405180910390fd5b565b6001600160a01b0384166200034857604051630d2d5ec360e41b815260040160405180910390fd5b82600360008282546200035c919062000a36565b90915550506001600160a01b038416600090815260046020526040812080548592906200038b90849062000a36565b90915550506040516001600160a01b0385169060009033907f3997e418d2cef0b3b0e907b1e39605c3f7d32dbd061e82ea5b4a770d46a160a690620003d69088908890889062000a4c565b60405180910390a46000336000868685604051602001620003fc95949392919062000a78565b60408051601f1981840301815291905290506200041b85848362000422565b5050505050565b6200043583631aed5a8560e21b6200053b565b15620004d557604051631aed5a8560e21b81526001600160a01b03841690636bb56a14906200048b907f20804611b3e2ea21c480dc465142210acf4a2485947541770ec1fb87dee4a55c90859060040162000ac0565b6000604051808303816000875af1158015620004ab573d6000803e3d6000fd5b505050506040513d6000823e601f3d908101601f19168201604052620002d5919081019062000ae3565b8162000536576001600160a01b0383163b1562000511576040516353047ddb60e11b81526001600160a01b038416600482015260240162000315565b6040516309b091fd60e21b81526001600160a01b038416600482015260240162000315565b505050565b604080516001600160e01b03198316602480830191909152825180830390910181526044909101909152602080820180516001600160e01b03166301ffc9a760e01b178152825160009392849283928392918391908a617530fa92503d91506000519050828015620005ae575060208210155b8015620005bb5750600081115b9450505050505b92915050565b634e487b7160e01b600052604160045260246000fd5b60005b83811015620005fb578181015183820152602001620005e1565b50506000910152565b60006001600160401b0380841115620006215762000621620005c8565b604051601f8501601f19908116603f011681019082821181831017156200064c576200064c620005c8565b816040528093508581528686860111156200066657600080fd5b62000676866020830187620005de565b5050509392505050565b600082601f8301126200069257600080fd5b620006a38383516020850162000604565b9392505050565b600080600080600060a08688031215620006c357600080fd5b85516001600160401b0380821115620006db57600080fd5b620006e989838a0162000680565b965060208801519150808211156200070057600080fd5b506200070f8882890162000680565b604088015190955090506001600160a01b03811681146200072f57600080fd5b60608701516080880151919450925080151581146200074d57600080fd5b809150509295509295909350565b634e487b7160e01b600052601160045260246000fd5b600181815b80851115620007b25781600019048211156200079657620007966200075b565b80851615620007a457918102915b93841c939080029062000776565b509250929050565b600082620007cb57506001620005c2565b81620007da57506000620005c2565b8160018114620007f35760028114620007fe576200081e565b6001915050620005c2565b60ff8411156200081257620008126200075b565b50506001821b620005c2565b5060208310610133831016604e8410600b841016171562000843575081810a620005c2565b6200084f838362000771565b80600019048211156200086657620008666200075b565b029392505050565b6000620006a360ff841683620007ba565b8082028115828204841417620005c257620005c26200075b565b600181811c90821680620008ae57607f821691505b602082108103620008cf57634e487b7160e01b600052602260045260246000fd5b50919050565b601f8211156200053657600081815260208120601f850160051c81016020861015620008fe5750805b601f850160051c820191505b818110156200091f578281556001016200090a565b505050505050565b81516001600160401b03811115620009435762000943620005c8565b6200095b8162000954845462000899565b84620008d5565b602080601f8311600181146200099357600084156200097a5750858301515b600019600386901b1c1916600185901b1785556200091f565b600085815260208120601f198616915b82811015620009c457888601518255948401946001909101908401620009a3565b5085821015620009e35787850151600019600388901b60f8161c191681555b5050505050600190811b01905550565b6000815180845262000a0d816020860160208601620005de565b601f01601f19169290920160200192915050565b602081526000620006a36020830184620009f3565b80820180821115620005c257620005c26200075b565b838152821515602082015260606040820152600062000a6f6060830184620009f3565b95945050505050565b6001600160a01b0386811682528581166020830152841660408201526060810183905260a06080820181905260009062000ab590830184620009f3565b979650505050505050565b82815260406020820152600062000adb6040830184620009f3565b949350505050565b60006020828403121562000af657600080fd5b81516001600160401b0381111562000b0d57600080fd5b8201601f8101841362000b1f57600080fd5b62000adb8482516020840162000604565b61294b8062000b406000396000f3fe6080604052600436106101795760003560e01c8063715018a6116100cb5780638da5cb5b1161007f578063d72fc29a11610059578063d72fc29a146104be578063dedff9c6146104eb578063f2fde38b1461050b576101ed565b80638da5cb5b14610463578063979024211461048b578063b49506fd1461049e576101ed565b8063760d9bba116100b0578063760d9bba146104105780637b204c4e146104305780637f23690c14610450576101ed565b8063715018a6146103db5780637580d920146103f0576101ed565b806344d171871161012d57806365aeaa951161010757806365aeaa95146103585780636963d4381461037857806370a08231146103a5576101ed565b806344d17187146102eb5780634521748e1461030b57806354f6127f1461032b576101ed565b80632bc1da821161015e5780632bc1da82146102825780632d7667c9146102a4578063313ce567146102c4576101ed565b806301ffc9a71461022e57806318160ddd14610263576101ed565b366101ed57346000036101bb5760405163e5099ee360e01b81526004016101b29060208082526004908201526000604082015260600190565b60405180910390fd5b6040517f388f5adc00000000000000000000000000000000000000000000000000000000815260040160405180910390fd5b6000366060600482101561021857828260405163e5099ee360e01b81526004016101b2929190611d0a565b610222838361052b565b80519350602001915050f35b34801561023a57600080fd5b5061024e610249366004611d39565b61063a565b60405190151581526020015b60405180910390f35b34801561026f57600080fd5b506003545b60405190815260200161025a565b34801561028e57600080fd5b506102a261029d366004611e44565b610687565b005b3480156102b057600080fd5b506102a26102bf366004612079565b610730565b3480156102d057600080fd5b506102d9610838565b60405160ff909116815260200161025a565b3480156102f757600080fd5b506102a2610306366004611e44565b610851565b34801561031757600080fd5b506102a261032636600461214b565b61087c565b34801561033757600080fd5b5061034b610346366004612193565b6108c9565b60405161025a91906121fc565b34801561036457600080fd5b5061027461037336600461220f565b6108d4565b34801561038457600080fd5b50610398610393366004612242565b61093a565b60405161025a91906122b7565b3480156103b157600080fd5b506102746103c0366004612319565b6001600160a01b031660009081526004602052604090205490565b3480156103e757600080fd5b506102a2610a8a565b3480156103fc57600080fd5b506102a261040b366004612334565b610a9e565b34801561041c57600080fd5b506102a261042b36600461239c565b610ab2565b34801561043c57600080fd5b506102a261044b366004611e44565b610b2c565b6102a261045e366004612408565b610b85565b34801561046f57600080fd5b506000546040516001600160a01b03909116815260200161025a565b6102a261049936600461244f565b610bba565b3480156104aa57600080fd5b506102a26104b9366004611e44565b610ca7565b3480156104ca57600080fd5b506104de6104d9366004612319565b610ccc565b60405161025a91906124a9565b3480156104f757600080fd5b506103986105063660046124f6565b610cf0565b34801561051757600080fd5b506102a2610526366004612319565b610d9b565b606060006105446000356001600160e01b031916610def565b5090506001600160a01b038116610595576040517fbb370b2b0000000000000000000000000000000000000000000000000000000081526001600160e01b03196000351660048201526024016101b2565b600080826001600160a01b031634878733346040516020016105ba949392919061252b565b60408051601f19818403018152908290526105d49161255b565b60006040518083038185875af1925050503d8060008114610611576040519150601f19603f3d011682016040523d82523d6000602084013e610616565b606091505b5091509150811561062b579250610634915050565b80518060208301fd5b92915050565b60006001600160e01b031982167fb3c4928f000000000000000000000000000000000000000000000000000000001480610678575061067882610e99565b80610634575061063482610ed7565b600061069384336108d4565b9050806000036106da576040517fcba6e9770000000000000000000000000000000000000000000000000000000081526001600160a01b03851660048201526024016101b2565b60006106e6848361258d565b90506106f6338683600187610f15565b600033828560405160200161070d939291906125a0565b604051602081830303815290604052905061072886826110ba565b505050505050565b8451845181141580610743575083518114155b8061074f575082518114155b8061075b575081518114155b15610792576040517f263eee8d00000000000000000000000000000000000000000000000000000000815260040160405180910390fd5b60005b8181101561082f576108278782815181106107b2576107b26125d1565b60200260200101518783815181106107cc576107cc6125d1565b60200260200101518784815181106107e6576107e66125d1565b6020026020010151878581518110610800576108006125d1565b602002602001015187868151811061081a5761081a6125d1565b6020026020010151610ab2565b600101610795565b50505050505050565b60025460009060ff1661084b5750601290565b50600090565b336001600160a01b0384161461086c5761086c3384846110e5565b61087783838361118c565b505050565b61088a338460008585610f15565b8115610877576000336000836040516020016108a8939291906125e7565b60405160208183030381529060405290506108c384826110ba565b50505050565b6060610634826112cd565b6000826001600160a01b0316826001600160a01b03160361090e57506001600160a01b038116600090815260046020526040902054610634565b506001600160a01b03808216600090815260066020908152604080832093861683529290522054610634565b60608167ffffffffffffffff81111561095557610955611d7f565b60405190808252806020026020018201604052801561098857816020015b60608152602001906001900390816109735790505b50905060005b82811015610a8357600080308686858181106109ac576109ac6125d1565b90506020028101906109be9190612612565b6040516109cc929190612660565b600060405180830381855af49150503d8060008114610a07576040519150601f19603f3d011682016040523d82523d6000602084013e610a0c565b606091505b509150915081610a5b57805115610a265780518082602001fd5b6040517fb774c284000000000000000000000000000000000000000000000000000000008152600481018490526024016101b2565b80848481518110610a6e57610a6e6125d1565b6020908102919091010152505060010161098e565b5092915050565b610a9261136f565b610a9c60006113c4565b565b610aa661136f565b6108c38484848461144a565b836001600160a01b0316856001600160a01b031603610afd576040517fb9afb00000000000000000000000000000000000000000000000000000000000815260040160405180910390fd5b336001600160a01b03861614610b1857610b183386856110e5565b610b258585858585611539565b5050505050565b6000610b3884336108d4565b905082811015610b74576040517f0ef76c3500000000000000000000000000000000000000000000000000000000815260040160405180910390fd5b8281036106f6338683600187610f15565b610b8d61136f565b3415610bac5760405163f36ba73760e01b815260040160405180910390fd5b610bb682826116bd565b5050565b610bc261136f565b3415610be15760405163f36ba73760e01b815260040160405180910390fd5b8051825114610c1c576040517f3bcc897900000000000000000000000000000000000000000000000000000000815260040160405180910390fd5b8151600003610c57576040517f97da5f9500000000000000000000000000000000000000000000000000000000815260040160405180910390fd5b60005b825181101561087757610c9f838281518110610c7857610c786125d1565b6020026020010151838381518110610c9257610c926125d1565b60200260200101516116bd565b600101610c5a565b610cb5338484600185610f15565b60003383836040516020016108a8939291906125a0565b6001600160a01b0381166000908152600560205260409020606090610634906116c7565b6060815167ffffffffffffffff811115610d0c57610d0c611d7f565b604051908082528060200260200182016040528015610d3f57816020015b6060815260200190600190039081610d2a5790505b50905060005b8251811015610d9557610d70838281518110610d6357610d636125d1565b60200260200101516112cd565b828281518110610d8257610d826125d1565b6020908102919091010152600101610d45565b50919050565b610da361136f565b6001600160a01b038116610de3576040517f1ad8836c00000000000000000000000000000000000000000000000000000000815260040160405180910390fd5b610dec816113c4565b50565b60008080610e277fcee78b4094da86011096000000000000000000000000000000000000000000006001600160e01b031986166116d4565b90506000610e34826112cd565b90508051601414158015610e485750805115155b15610e8157806040517f42bfe79f0000000000000000000000000000000000000000000000000000000081526004016101b291906121fc565b610e8a81612670565b60601c95600195509350505050565b60006001600160e01b031982167fa918fa6b000000000000000000000000000000000000000000000000000000001480610634575061063482611745565b600080610eea6301ffc9a760e01b610def565b5090506001600160a01b038116610f045750600092915050565b610f0e8184611793565b9392505050565b6001600160a01b038416610f55576040517f6355e76600000000000000000000000000000000000000000000000000000000815260040160405180910390fd5b846001600160a01b0316846001600160a01b031603610fa0576040517fdab7504700000000000000000000000000000000000000000000000000000000815260040160405180910390fd5b6001600160a01b0380861660009081526006602090815260408083209388168352929052208390558215611042576001600160a01b0385166000908152600560205260409020610ff09085611831565b5082856001600160a01b0316856001600160a01b03167ff772a43bfdf4729b196e3fb54a818b91a2ca6c49d10b2e16278752f9f515c25d8460405161103591906121fc565b60405180910390a4610b25565b6001600160a01b03851660009081526005602052604090206110649085611846565b50811515856001600160a01b0316856001600160a01b03167f0ebf5762d8855cbe012d2ca42fb33a81175e17c8a8751f8859931ba453bd4167846040516110ab91906121fc565b60405180910390a45050505050565b610bb6827f386072cc5a58e61263b434c722725f21031cd06e7c552cfaa06db5de8a320dbc8361185b565b6001600160a01b0380831660009081526006602090815260408083209387168352929052205480821115611166576040517ff3a6b6910000000000000000000000000000000000000000000000000000000081526001600160a01b0380851660048301526024820183905285166044820152606481018390526084016101b2565b6108c3838561117585856126ac565b600060405180602001604052806000815250610f15565b6001600160a01b0383166111b357604051630d2d5ec360e41b815260040160405180910390fd5b6001600160a01b03831660009081526004602052604090205480831115611206576040516308d4794960e01b8152600481018290526001600160a01b0385166024820152604481018490526064016101b2565b826003600082825461121891906126ac565b90915550506001600160a01b038416600090815260046020526040812080548592906112459084906126ac565b90915550506040516000906001600160a01b0386169033907f3997e418d2cef0b3b0e907b1e39605c3f7d32dbd061e82ea5b4a770d46a160a69061128e908890869089906126bf565b60405180910390a460003385600086866040516020016112b29594939291906126e0565b6040516020818303038152906040529050610b2585826118ef565b60008181526001602052604090208054606091906112ea9061271a565b80601f01602080910402602001604051908101604052809291908181526020018280546113169061271a565b80156113635780601f1061133857610100808354040283529160200191611363565b820191906000526020600020905b81548152906001019060200180831161134657829003601f168201915b50505050509050919050565b336113826000546001600160a01b031690565b6001600160a01b031614610a9c576040517fbf1169c50000000000000000000000000000000000000000000000000000000081523360048201526024016101b2565b6000546001600160a01b03828116911614610dec57600080546040516001600160a01b03808516939216917f8be0079c531659141344cd1fd0a4f28419497f9722a3daafe3b4186f6b6457e091a3600080546001600160a01b0383167fffffffffffffffffffffffff000000000000000000000000000000000000000090911617905550565b6001600160a01b03841661147157604051630d2d5ec360e41b815260040160405180910390fd5b8260036000828254611483919061258d565b90915550506001600160a01b038416600090815260046020526040812080548592906114b090849061258d565b90915550506040516001600160a01b0385169060009033907f3997e418d2cef0b3b0e907b1e39605c3f7d32dbd061e82ea5b4a770d46a160a6906114f9908890889088906126bf565b60405180910390a4600033600086868560405160200161151d9594939291906126e0565b6040516020818303038152906040529050610b2585848361191a565b6001600160a01b038516158061155657506001600160a01b038416155b1561157457604051630d2d5ec360e41b815260040160405180910390fd5b6001600160a01b038516600090815260046020526040902054808411156115c7576040516308d4794960e01b8152600481018290526001600160a01b0387166024820152604481018590526064016101b2565b6001600160a01b038616600090815260046020526040812080548692906115ef9084906126ac565b90915550506001600160a01b0385166000908152600460205260408120805486929061161c90849061258d565b92505081905550846001600160a01b0316866001600160a01b0316336001600160a01b03167f3997e418d2cef0b3b0e907b1e39605c3f7d32dbd061e82ea5b4a770d46a160a6878787604051611674939291906126bf565b60405180910390a4600033878787866040516020016116979594939291906126e0565b60405160208183030381529060405290506116b287826118ef565b61082f86858361191a565b610bb68282611a0d565b60606000610f0e83611b6d565b604080517fffffffffffffffffffff00000000000000000000000000000000000000000000841660208201526000602a82018190526bffffffffffffffffffffffff198416602c8301529182910160405160208183030381529060405290508061173d9061274e565b949350505050565b60006001600160e01b031982167f629aa69400000000000000000000000000000000000000000000000000000000148061063457506301ffc9a760e01b6001600160e01b0319831614610634565b604080516001600160e01b03198316602480830191909152825180830390910181526044909101909152602080820180517bffffffffffffffffffffffffffffffffffffffffffffffffffffffff166301ffc9a760e01b178152825160009392849283928392918391908a617530fa92503d9150600051905082801561181a575060208210155b80156118265750600081115b979650505050505050565b6000610f0e836001600160a01b038416611bc8565b6000610f0e836001600160a01b038416611c17565b6118756001600160a01b038416631aed5a8560e21b611793565b1561087757604051631aed5a8560e21b81526001600160a01b03841690636bb56a14906118a89085908590600401612772565b6000604051808303816000875af11580156118c7573d6000803e3d6000fd5b505050506040513d6000823e601f3d908101601f191682016040526108c3919081019061278b565b610bb6827f429ac7a06903dbc9c13dfcb3c9d11df8194581fa047c96d7a4171fc7402958ea8361185b565b61192b83631aed5a8560e21b611793565b1561197e57604051631aed5a8560e21b81526001600160a01b03841690636bb56a14906118a8907f20804611b3e2ea21c480dc465142210acf4a2485947541770ec1fb87dee4a55c908590600401612772565b81610877576001600160a01b0383163b156119d0576040517fa608fbb60000000000000000000000000000000000000000000000000000000081526001600160a01b03841660048201526024016101b2565b6040517f26c247f40000000000000000000000000000000000000000000000000000000081526001600160a01b03841660048201526024016101b2565b7f2145e1d6d074577dc71ef54c3807742b41b053a9352ae6b491331509acb9750f8201611a66576040517f85c169bd00000000000000000000000000000000000000000000000000000000815260040160405180910390fd5b7fd0f59754f88971fe6bc5a6618cc9d5f1e859c58d16b22d1c7b2d3e2b246cd8aa8201611abf576040517f76755b3800000000000000000000000000000000000000000000000000000000815260040160405180910390fd5b7f1fd9e056a24d14c4abc642fcc325992a946906d0dbc57dd70278aaf12842024d8201611b18576040517f4ef6d7fb00000000000000000000000000000000000000000000000000000000815260040160405180910390fd5b6000828152600160205260409020611b30828261283f565b50817fece574603820d07bc9b91f2a932baadf4628aabcb8afba49776529c14a6104b282604051611b6191906121fc565b60405180910390a25050565b60608160000180548060200260200160405190810160405280929190818152602001828054801561136357602002820191906000526020600020905b815481526020019060010190808311611ba95750505050509050919050565b6000818152600183016020526040812054611c0f57508154600181810184556000848152602080822090930184905584548482528286019093526040902091909155610634565b506000610634565b60008181526001830160205260408120548015611d00576000611c3b6001836126ac565b8554909150600090611c4f906001906126ac565b9050818114611cb4576000866000018281548110611c6f57611c6f6125d1565b9060005260206000200154905080876000018481548110611c9257611c926125d1565b6000918252602080832090910192909255918252600188019052604090208390555b8554869080611cc557611cc56128ff565b600190038181906000526020600020016000905590558560010160008681526020019081526020016000206000905560019350505050610634565b6000915050610634565b60208152816020820152818360408301376000818301604090810191909152601f909201601f19160101919050565b600060208284031215611d4b57600080fd5b81356001600160e01b031981168114610f0e57600080fd5b80356001600160a01b0381168114611d7a57600080fd5b919050565b634e487b7160e01b600052604160045260246000fd5b604051601f8201601f1916810167ffffffffffffffff81118282101715611dbe57611dbe611d7f565b604052919050565b600067ffffffffffffffff821115611de057611de0611d7f565b50601f01601f191660200190565b600082601f830112611dff57600080fd5b8135611e12611e0d82611dc6565b611d95565b818152846020838601011115611e2757600080fd5b816020850160208301376000918101602001919091529392505050565b600080600060608486031215611e5957600080fd5b611e6284611d63565b925060208401359150604084013567ffffffffffffffff811115611e8557600080fd5b611e9186828701611dee565b9150509250925092565b600067ffffffffffffffff821115611eb557611eb5611d7f565b5060051b60200190565b600082601f830112611ed057600080fd5b81356020611ee0611e0d83611e9b565b82815260059290921b84018101918181019086841115611eff57600080fd5b8286015b84811015611f2157611f1481611d63565b8352918301918301611f03565b509695505050505050565b600082601f830112611f3d57600080fd5b81356020611f4d611e0d83611e9b565b82815260059290921b84018101918181019086841115611f6c57600080fd5b8286015b84811015611f215780358352918301918301611f70565b80358015158114611d7a57600080fd5b600082601f830112611fa857600080fd5b81356020611fb8611e0d83611e9b565b82815260059290921b84018101918181019086841115611fd757600080fd5b8286015b84811015611f2157611fec81611f87565b8352918301918301611fdb565b600082601f83011261200a57600080fd5b8135602061201a611e0d83611e9b565b82815260059290921b8401810191818101908684111561203957600080fd5b8286015b84811015611f2157803567ffffffffffffffff81111561205d5760008081fd5b61206b8986838b0101611dee565b84525091830191830161203d565b600080600080600060a0868803121561209157600080fd5b853567ffffffffffffffff808211156120a957600080fd5b6120b589838a01611ebf565b965060208801359150808211156120cb57600080fd5b6120d789838a01611ebf565b955060408801359150808211156120ed57600080fd5b6120f989838a01611f2c565b9450606088013591508082111561210f57600080fd5b61211b89838a01611f97565b9350608088013591508082111561213157600080fd5b5061213e88828901611ff9565b9150509295509295909350565b60008060006060848603121561216057600080fd5b61216984611d63565b925061217760208501611f87565b9150604084013567ffffffffffffffff811115611e8557600080fd5b6000602082840312156121a557600080fd5b5035919050565b60005b838110156121c75781810151838201526020016121af565b50506000910152565b600081518084526121e88160208601602086016121ac565b601f01601f19169290920160200192915050565b602081526000610f0e60208301846121d0565b6000806040838503121561222257600080fd5b61222b83611d63565b915061223960208401611d63565b90509250929050565b6000806020838503121561225557600080fd5b823567ffffffffffffffff8082111561226d57600080fd5b818501915085601f83011261228157600080fd5b81358181111561229057600080fd5b8660208260051b85010111156122a557600080fd5b60209290920196919550909350505050565b6000602080830181845280855180835260408601915060408160051b870101925083870160005b8281101561230c57603f198886030184526122fa8583516121d0565b945092850192908501906001016122de565b5092979650505050505050565b60006020828403121561232b57600080fd5b610f0e82611d63565b6000806000806080858703121561234a57600080fd5b61235385611d63565b93506020850135925061236860408601611f87565b9150606085013567ffffffffffffffff81111561238457600080fd5b61239087828801611dee565b91505092959194509250565b600080600080600060a086880312156123b457600080fd5b6123bd86611d63565b94506123cb60208701611d63565b9350604086013592506123e060608701611f87565b9150608086013567ffffffffffffffff8111156123fc57600080fd5b61213e88828901611dee565b6000806040838503121561241b57600080fd5b82359150602083013567ffffffffffffffff81111561243957600080fd5b61244585828601611dee565b9150509250929050565b6000806040838503121561246257600080fd5b823567ffffffffffffffff8082111561247a57600080fd5b61248686838701611f2c565b9350602085013591508082111561249c57600080fd5b5061244585828601611ff9565b6020808252825182820181905260009190848201906040850190845b818110156124ea5783516001600160a01b0316835292840192918401916001016124c5565b50909695505050505050565b60006020828403121561250857600080fd5b813567ffffffffffffffff81111561251f57600080fd5b61173d84828501611f2c565b8385823760609290921b6bffffffffffffffffffffffff1916919092019081526014810191909152603401919050565b6000825161256d8184602087016121ac565b9190910192915050565b634e487b7160e01b600052601160045260246000fd5b8082018082111561063457610634612577565b6001600160a01b03841681528260208201526060604082015260006125c860608301846121d0565b95945050505050565b634e487b7160e01b600052603260045260246000fd5b6001600160a01b038416815260ff831660208201526060604082015260006125c860608301846121d0565b6000808335601e1984360301811261262957600080fd5b83018035915067ffffffffffffffff82111561264457600080fd5b60200191503681900382131561265957600080fd5b9250929050565b8183823760009101908152919050565b805160208201516bffffffffffffffffffffffff1980821692919060148310156126a45780818460140360031b1b83161693505b505050919050565b8181038181111561063457610634612577565b83815282151560208201526060604082015260006125c860608301846121d0565b60006001600160a01b038088168352808716602084015280861660408401525083606083015260a0608083015261182660a08301846121d0565b600181811c9082168061272e57607f821691505b602082108103610d9557634e487b7160e01b600052602260045260246000fd5b80516020808301519190811015610d955760001960209190910360031b1b16919050565b82815260406020820152600061173d60408301846121d0565b60006020828403121561279d57600080fd5b815167ffffffffffffffff8111156127b457600080fd5b8201601f810184136127c557600080fd5b80516127d3611e0d82611dc6565b8181528560208385010111156127e857600080fd5b6125c88260208301602086016121ac565b601f82111561087757600081815260208120601f850160051c810160208610156128205750805b601f850160051c820191505b818110156107285782815560010161282c565b815167ffffffffffffffff81111561285957612859611d7f565b61286d81612867845461271a565b846127f9565b602080601f8311600181146128a2576000841561288a5750858301515b600019600386901b1c1916600185901b178555610728565b600085815260208120601f198616915b828110156128d1578886015182559484019460019091019084016128b2565b50858210156128ef5787850151600019600388901b60f8161c191681555b5050505050600190811b01905550565b634e487b7160e01b600052603160045260246000fdfea2646970667358221220da44787200cba3963862afe29a572c2717edf25e20bceb16c14e0c0532c44e0864736f6c63430008130033",
  "linkReferences": {},
  "deployedLinkReferences": {}
}